:08000000803102288731DB2F5B
:100D4800A42E0800FF340334FC3021009905080064
:100D5800640080010131890BAD2E0034FE001200C1
:100D68001E00FE0BB32E003423009F151F129F1088
:100D78001F109C0128309B009E121D169D1708000D
:100D880025001308F0390C389300FC3020009C052E
:100D9800FC3025009D0521000E1120001C150800BF
:100DA800F800760877040319DA2EDB2EE42E78355E
:100DB800463E860087017608C03F7708C13FEC2E83
:100DC8007835463E860087010030C03F0030C13F7D
:100DD80000300800873126278631F9007908031981
:100DE800F62EF72EF92E7908092F0030F60000307C
:100DF800F7000B308631D4268631F90079080319BB
:100E0800062F072F082FF72E003008008631A82656
:100E180087318631B826873187316927873186310E
:100E2800C42687318631EE268731FA007A080319FD
:100E38001E2F1F2F232F7A088631A4268731232FB0
:100E480080310228F701F8017735463E8600870190
:100E58000030C03F0030C13F0130F7070030F83D97
:100E68007808803AF60080307602031D3D2F0F3057
:100E78007702031C402F412F282F00300800FF3431
:100E88000334FF340334FF340334FF340334FF34B2
:100E98000334FF340334FF340334FF340334FF34A2
:100EA8000334FF340334FF340334FF340334FF3492
:100EB8000334FF340334FF340334FF340334FF3482
:100EC8000334FF340334FF340334FF3021008C0033
:100ED800FF308D00FF308E00FF308F00FF30900014
:100EE800FF3026008C00FF308D0023008C018D011F
:100EF8008F01900128008C018D0121000C14230022
:100F08000C1421008C1423008C1421000C152300D0
:100F18000C1521008C1523008C1521000C128C1641
:100F280023008C1621000C178C170D108D100D1135
:100F38008D110D128D120D138D130E108E100E11B2
:100F48008E110E128E120E138E170F108F100F1196
:100F58008F110F128F120F138F1310109010101182
:100F68009011101290121013901326000C108C146C
:100F780028008C1426000C1528000C1526008C154A
:100F880028008C1526000C1628000C1626008C123A
:100F98000C138C1728008C1726000D108D100D15BA
:100FA8008D110D122100951329008D160800863128
:100FB800A6268731FB008631A7268731FC004330FF
:100FC8008400873085002030860000308700263076
:100FD8008631B2268731F001F101F201F301F40103
:100FE800F501463084000030850022308631AC2679
:080FF8008731200087310A2F28
:020000040001F9
:04000E00A209FF1D27
:00000001FF
